{
  "contractName": "CaptionCard",
  "abi": [
    {
      "constant": true,
      "inputs": [],
      "name": "creator",
      "outputs": [
        {
          "name": "",
          "type": "address"
        }
      ],
      "payable": false,
      "stateMutability": "view",
      "type": "function"
    },
    {
      "constant": true,
      "inputs": [],
      "name": "name",
      "outputs": [
        {
          "name": "",
          "type": "string"
        }
      ],
      "payable": false,
      "stateMutability": "view",
      "type": "function"
    },
    {
      "constant": false,
      "inputs": [
        {
          "name": "spender",
          "type": "address"
        },
        {
          "name": "value",
          "type": "uint256"
        }
      ],
      "name": "approve",
      "outputs": [
        {
          "name": "",
          "type": "bool"
        }
      ],
      "payable": false,
      "stateMutability": "nonpayable",
      "type": "function"
    },
    {
      "constant": true,
      "inputs": [],
      "name": "totalSupply",
      "outputs": [
        {
          "name": "",
          "type": "uint256"
        }
      ],
      "payable": false,
      "stateMutability": "view",
      "type": "function"
    },
    {
      "constant": false,
      "inputs": [
        {
          "name": "from",
          "type": "address"
        },
        {
          "name": "to",
          "type": "address"
        },
        {
          "name": "value",
          "type": "uint256"
        }
      ],
      "name": "transferFrom",
      "outputs": [
        {
          "name": "",
          "type": "bool"
        }
      ],
      "payable": false,
      "stateMutability": "nonpayable",
      "type": "function"
    },
    {
      "constant": true,
      "inputs": [],
      "name": "decimals",
      "outputs": [
        {
          "name": "",
          "type": "uint8"
        }
      ],
      "payable": false,
      "stateMutability": "view",
      "type": "function"
    },
    {
      "constant": false,
      "inputs": [
        {
          "name": "spender",
          "type": "address"
        },
        {
          "name": "addedValue",
          "type": "uint256"
        }
      ],
      "name": "increaseAllowance",
      "outputs": [
        {
          "name": "",
          "type": "bool"
        }
      ],
      "payable": false,
      "stateMutability": "nonpayable",
      "type": "function"
    },
    {
      "constant": true,
      "inputs": [],
      "name": "captionText",
      "outputs": [
        {
          "name": "",
          "type": "string"
        }
      ],
      "payable": false,
      "stateMutability": "view",
      "type": "function"
    },
    {
      "constant": true,
      "inputs": [],
      "name": "exponent",
      "outputs": [
        {
          "name": "",
          "type": "uint8"
        }
      ],
      "payable": false,
      "stateMutability": "view",
      "type": "function"
    },
    {
      "constant": false,
      "inputs": [
        {
          "name": "numTokens",
          "type": "uint256"
        }
      ],
      "name": "calculateSaleReturn",
      "outputs": [
        {
          "name": "",
          "type": "uint256"
        }
      ],
      "payable": false,
      "stateMutability": "nonpayable",
      "type": "function"
    },
    {
      "constant": true,
      "inputs": [
        {
          "name": "owner",
          "type": "address"
        }
      ],
      "name": "balanceOf",
      "outputs": [
        {
          "name": "",
          "type": "uint256"
        }
      ],
      "payable": false,
      "stateMutability": "view",
      "type": "function"
    },
    {
      "constant": false,
      "inputs": [],
      "name": "renounceOwnership",
      "outputs": [],
      "payable": false,
      "stateMutability": "nonpayable",
      "type": "function"
    },
    {
      "constant": false,
      "inputs": [
        {
          "name": "numTokens",
          "type": "uint256"
        },
        {
          "name": "account",
          "type": "address"
        }
      ],
      "name": "buy",
      "outputs": [],
      "payable": true,
      "stateMutability": "payable",
      "type": "function"
    },
    {
      "constant": true,
      "inputs": [],
      "name": "owner",
      "outputs": [
        {
          "name": "",
          "type": "address"
        }
      ],
      "payable": false,
      "stateMutability": "view",
      "type": "function"
    },
    {
      "constant": true,
      "inputs": [],
      "name": "isOwner",
      "outputs": [
        {
          "name": "",
          "type": "bool"
        }
      ],
      "payable": false,
      "stateMutability": "view",
      "type": "function"
    },
    {
      "constant": true,
      "inputs": [],
      "name": "symbol",
      "outputs": [
        {
          "name": "",
          "type": "string"
        }
      ],
      "payable": false,
      "stateMutability": "view",
      "type": "function"
    },
    {
      "constant": true,
      "inputs": [],
      "name": "poolBalance",
      "outputs": [
        {
          "name": "",
          "type": "uint256"
        }
      ],
      "payable": false,
      "stateMutability": "view",
      "type": "function"
    },
    {
      "constant": false,
      "inputs": [
        {
          "name": "spender",
          "type": "address"
        },
        {
          "name": "subtractedValue",
          "type": "uint256"
        }
      ],
      "name": "decreaseAllowance",
      "outputs": [
        {
          "name": "",
          "type": "bool"
        }
      ],
      "payable": false,
      "stateMutability": "nonpayable",
      "type": "function"
    },
    {
      "constant": false,
      "inputs": [
        {
          "name": "to",
          "type": "address"
        },
        {
          "name": "value",
          "type": "uint256"
        }
      ],
      "name": "transfer",
      "outputs": [
        {
          "name": "",
          "type": "bool"
        }
      ],
      "payable": false,
      "stateMutability": "nonpayable",
      "type": "function"
    },
    {
      "constant": false,
      "inputs": [
        {
          "name": "numTokens",
          "type": "uint256"
        }
      ],
      "name": "priceToMint",
      "outputs": [
        {
          "name": "",
          "type": "uint256"
        }
      ],
      "payable": false,
      "stateMutability": "nonpayable",
      "type": "function"
    },
    {
      "constant": true,
      "inputs": [
        {
          "name": "owner",
          "type": "address"
        },
        {
          "name": "spender",
          "type": "address"
        }
      ],
      "name": "allowance",
      "outputs": [
        {
          "name": "",
          "type": "uint256"
        }
      ],
      "payable": false,
      "stateMutability": "view",
      "type": "function"
    },
    {
      "constant": false,
      "inputs": [
        {
          "name": "sellAmount",
          "type": "uint256"
        }
      ],
      "name": "sell",
      "outputs": [],
      "payable": false,
      "stateMutability": "nonpayable",
      "type": "function"
    },
    {
      "constant": false,
      "inputs": [
        {
          "name": "newOwner",
          "type": "address"
        }
      ],
      "name": "transferOwnership",
      "outputs": [],
      "payable": false,
      "stateMutability": "nonpayable",
      "type": "function"
    },
    {
      "inputs": [
        {
          "name": "_captionText",
          "type": "string"
        },
        {
          "name": "_creator",
          "type": "address"
        }
      ],
      "payable": false,
      "stateMutability": "nonpayable",
      "type": "constructor"
    },
    {
      "anonymous": false,
      "inputs": [
        {
          "indexed": false,
          "name": "amount",
          "type": "uint256"
        },
        {
          "indexed": false,
          "name": "totalCost",
          "type": "uint256"
        }
      ],
      "name": "Minted",
      "type": "event"
    },
    {
      "anonymous": false,
      "inputs": [
        {
          "indexed": false,
          "name": "amount",
          "type": "uint256"
        },
        {
          "indexed": false,
          "name": "reward",
          "type": "uint256"
        }
      ],
      "name": "Burned",
      "type": "event"
    },
    {
      "anonymous": false,
      "inputs": [
        {
          "indexed": true,
          "name": "previousOwner",
          "type": "address"
        },
        {
          "indexed": true,
          "name": "newOwner",
          "type": "address"
        }
      ],
      "name": "OwnershipTransferred",
      "type": "event"
    },
    {
      "anonymous": false,
      "inputs": [
        {
          "indexed": true,
          "name": "from",
          "type": "address"
        },
        {
          "indexed": true,
          "name": "to",
          "type": "address"
        },
        {
          "indexed": false,
          "name": "value",
          "type": "uint256"
        }
      ],
      "name": "Transfer",
      "type": "event"
    },
    {
      "anonymous": false,
      "inputs": [
        {
          "indexed": true,
          "name": "owner",
          "type": "address"
        },
        {
          "indexed": true,
          "name": "spender",
          "type": "address"
        },
        {
          "indexed": false,
          "name": "value",
          "type": "uint256"
        }
      ],
      "name": "Approval",
      "type": "event"
    }
  ],
  "bytecode": "0x60806040523480156200001157600080fd5b5060405162001d6538038062001d65833981018060405260408110156200003757600080fd5b8101908080516401000000008111156200005057600080fd5b828101905060208101848111156200006757600080fd5b81518560018202830111640100000000821117156200008557600080fd5b5050929190602001805190602001909291905050508160405180602001604052806000815250601260018383838260009080519060200190620000ca92919062000241565b508160019080519060200190620000e392919062000241565b5080600260006101000a81548160ff021916908360ff16021790555050505033600660006101000a81548173ffffffffffffffffffffffffffffffffffffffff021916908373ffffffffffffffffffffffffffffffffffffffff160217905550600660009054906101000a900473ffffffffffffffffffffffffffffffffffffffff1673ffffffffffffffffffffffffffffffffffffffff16600073ffffffffffffffffffffffffffffffffffffffff167f8be0079c531659141344cd1fd0a4f28419497f9722a3daafe3b4186f6b6457e060405160405180910390a380600860006101000a81548160ff021916908360ff160217905550505050508160099080519060200190620001f792919062000241565b5080600860016101000a81548173ffffffffffffffffffffffffffffffffffffffff021916908373ffffffffffffffffffffffffffffffffffffffff1602179055505050620002f0565b828054600181600116156101000203166002900490600052602060002090601f016020900481019282601f106200028457805160ff1916838001178555620002b5565b82800160010185558215620002b5579182015b82811115620002b457825182559160200191906001019062000297565b5b509050620002c49190620002c8565b5090565b620002ed91905b80821115620002e9576000816000905550600101620002cf565b5090565b90565b611a6580620003006000396000f3fe60806040526004361061015d576000357c010000000000000000000000000000000000000000000000000000000090048063715018a6116100d3578063a457c2d71161008c578063a457c2d714610739578063a9059cbb146107ac578063b9d367431461081f578063dd62ed3e1461086e578063e4849b32146108f3578063f2fde38b1461092e5761015d565b8063715018a6146105935780637deb6025146105aa5780638da5cb5b146105f85780638f32d59b1461064f57806395d89b411461067e57806396365d441461070e5761015d565b8063313ce56711610125578063313ce5671461037a57806339509351146103ab5780633f0d478d1461041e57806352f6ee58146104ae57806369fcd4ac146104df57806370a082311461052e5761015d565b806302d05d3f1461016257806306fdde03146101b9578063095ea7b31461024957806318160ddd146102bc57806323b872dd146102e7575b600080fd5b34801561016e57600080fd5b5061017761097f565b604051808273ffffffffffffffffffffffffffffffffffffffff1673ffffffffffffffffffffffffffffffffffffffff16815260200191505060405180910390f35b3480156101c557600080fd5b506101ce6109a5565b6040518080602001828103825283818151815260200191508051906020019080838360005b8381101561020e5780820151818401526020810190506101f3565b50505050905090810190601f16801561023b5780820380516001836020036101000a031916815260200191505b509250505060405180910390f35b34801561025557600080fd5b506102a26004803603604081101561026c57600080fd5b81019080803573ffffffffffffffffffffffffffffffffffffffff16906020019092919080359060200190929190505050610a47565b604051808215151515815260200191505060405180910390f35b3480156102c857600080fd5b506102d1610a5e565b6040518082815260200191505060405180910390f35b3480156102f357600080fd5b506103606004803603606081101561030a57600080fd5b81019080803573ffffffffffffffffffffffffffffffffffffffff169060200190929190803573ffffffffffffffffffffffffffffffffffffffff16906020019092919080359060200190929190505050610a68565b604051808215151515815260200191505060405180910390f35b34801561038657600080fd5b5061038f610b19565b604051808260ff1660ff16815260200191505060405180910390f35b3480156103b757600080fd5b50610404600480360360408110156103ce57600080fd5b81019080803573ffffffffffffffffffffffffffffffffffffffff16906020019092919080359060200190929190505050610b30565b604051808215151515815260200191505060405180910390f35b34801561042a57600080fd5b50610433610bd5565b6040518080602001828103825283818151815260200191508051906020019080838360005b83811015610473578082015181840152602081019050610458565b50505050905090810190601f1680156104a05780820380516001836020036101000a031916815260200191505b509250505060405180910390f35b3480156104ba57600080fd5b506104c3610c73565b604051808260ff1660ff16815260200191505060405180910390f35b3480156104eb57600080fd5b506105186004803603602081101561050257600080fd5b8101908080359060200190929190505050610c86565b6040518082815260200191505060405180910390f35b34801561053a57600080fd5b5061057d6004803603602081101561055157600080fd5b81019080803573ffffffffffffffffffffffffffffffffffffffff169060200190929190505050610cca565b6040518082815260200191505060405180910390f35b34801561059f57600080fd5b506105a8610d13565b005b6105f6600480360360408110156105c057600080fd5b8101908080359060200190929190803573ffffffffffffffffffffffffffffffffffffffff169060200190929190505050610de5565b005b34801561060457600080fd5b5061060d610eba565b604051808273ffffffffffffffffffffffffffffffffffffffff1673ffffffffffffffffffffffffffffffffffffffff16815260200191505060405180910390f35b34801561065b57600080fd5b50610664610ee4565b604051808215151515815260200191505060405180910390f35b34801561068a57600080fd5b50610693610f3c565b6040518080602001828103825283818151815260200191508051906020019080838360005b838110156106d35780820151818401526020810190506106b8565b50505050905090810190601f1680156107005780820380516001836020036101000a031916815260200191505b509250505060405180910390f35b34801561071a57600080fd5b50610723610fde565b6040518082815260200191505060405180910390f35b34801561074557600080fd5b506107926004803603604081101561075c57600080fd5b81019080803573ffffffffffffffffffffffffffffffffffffffff16906020019092919080359060200190929190505050610fe4565b604051808215151515815260200191505060405180910390f35b3480156107b857600080fd5b50610805600480360360408110156107cf57600080fd5b81019080803573ffffffffffffffffffffffffffffffffffffffff16906020019092919080359060200190929190505050611089565b604051808215151515815260200191505060405180910390f35b34801561082b57600080fd5b506108586004803603602081101561084257600080fd5b81019080803590602001909291905050506110a0565b6040518082815260200191505060405180910390f35b34801561087a57600080fd5b506108dd6004803603604081101561089157600080fd5b81019080803573ffffffffffffffffffffffffffffffffffffffff169060200190929190803573ffffffffffffffffffffffffffffffffffffffff1690602001909291905050506110e4565b6040518082815260200191505060405180910390f35b3480156108ff57600080fd5b5061092c6004803603602081101561091657600080fd5b810190808035906020019092919050505061116b565b005b34801561093a57600080fd5b5061097d6004803603602081101561095157600080fd5b81019080803573ffffffffffffffffffffffffffffffffffffffff169060200190929190505050611248565b005b600860019054906101000a900473ffffffffffffffffffffffffffffffffffffffff1681565b606060008054600181600116156101000203166002900480601f016020809104026020016040519081016040528092919081815260200182805460018160011615610100020316600290048015610a3d5780601f10610a1257610100808354040283529160200191610a3d565b820191906000526020600020905b815481529060010190602001808311610a2057829003601f168201915b5050505050905090565b6000610a54338484611265565b6001905092915050565b6000600554905090565b6000610a758484846113c4565b610b0e8433610b0985600460008a73ffffffffffffffffffffffffffffffffffffffff1673ffffffffffffffffffffffffffffffffffffffff16815260200190815260200160002060003373ffffffffffffffffffffffffffffffffffffffff1673ffffffffffffffffffffffffffffffffffffffff1681526020019081526020016000205461159290919063ffffffff16565b611265565b600190509392505050565b6000600260009054906101000a900460ff16905090565b6000610bcb3384610bc685600460003373ffffffffffffffffffffffffffffffffffffffff1673ffffffffffffffffffffffffffffffffffffffff16815260200190815260200160002060008973ffffffffffffffffffffffffffffffffffffffff1673ffffffffffffffffffffffffffffffffffffffff168152602001908152602001600020546115b290919063ffffffff16565b611265565b6001905092915050565b60098054600181600116156101000203166002900480601f016020809104026020016040519081016040528092919081815260200182805460018160011615610100020316600290048015610c6b5780601f10610c4057610100808354040283529160200191610c6b565b820191906000526020600020905b815481529060010190602001808311610c4e57829003601f168201915b505050505081565b600860009054906101000a900460ff1681565b600080610c91610a5e565b9050610cc2610cb1610cac858461159290919063ffffffff16565b6115d1565b60075461159290919063ffffffff16565b915050919050565b6000600360008373ffffffffffffffffffffffffffffffffffffffff1673ffffffffffffffffffffffffffffffffffffffff168152602001908152602001600020549050919050565b610d1b610ee4565b610d2457600080fd5b600073ffffffffffffffffffffffffffffffffffffffff16600660009054906101000a900473ffffffffffffffffffffffffffffffffffffffff1673ffffffffffffffffffffffffffffffffffffffff167f8be0079c531659141344cd1fd0a4f28419497f9722a3daafe3b4186f6b6457e060405160405180910390a36000600660006101000a81548173ffffffffffffffffffffffffffffffffffffffff021916908373ffffffffffffffffffffffffffffffffffffffff160217905550565b6000610df0836110a0565b905080341015610dff57600080fd5b610e14346007546115b290919063ffffffff16565b600781905550610e248284611637565b80341115610e76573373ffffffffffffffffffffffffffffffffffffffff166108fc8234039081150290604051600060405180830381858888f19350505050158015610e74573d6000803e3d6000fd5b505b7f8a9dcf4e150b1153011b29fec302d5be0c13e84fa8f56ab78587f778a32a90dd8382604051808381526020018281526020019250505060405180910390a1505050565b6000600660009054906101000a900473ffffffffffffffffffffffffffffffffffffffff16905090565b6000600660009054906101000a900473ffffffffffffffffffffffffffffffffffffffff1673ffffffffffffffffffffffffffffffffffffffff163373ffffffffffffffffffffffffffffffffffffffff1614905090565b606060018054600181600116156101000203166002900480601f016020809104026020016040519081016040528092919081815260200182805460018160011615610100020316600290048015610fd45780601f10610fa957610100808354040283529160200191610fd4565b820191906000526020600020905b815481529060010190602001808311610fb757829003601f168201915b5050505050905090565b60075481565b600061107f338461107a85600460003373ffffffffffffffffffffffffffffffffffffffff1673ffffffffffffffffffffffffffffffffffffffff16815260200190815260200160002060008973ffffffffffffffffffffffffffffffffffffffff1673ffffffffffffffffffffffffffffffffffffffff1681526020019081526020016000205461159290919063ffffffff16565b611265565b6001905092915050565b60006110963384846113c4565b6001905092915050565b6000806110ab610a5e565b90506110dc6007546110ce6110c986856115b290919063ffffffff16565b6115d1565b61159290919063ffffffff16565b915050919050565b6000600460008473ffffffffffffffffffffffffffffffffffffffff1673ffffffffffffffffffffffffffffffffffffffff16815260200190815260200160002060008373ffffffffffffffffffffffffffffffffffffffff1673ffffffffffffffffffffffffffffffffffffffff16815260200190815260200160002054905092915050565b60008111801561118357508061118033610cca565b10155b61118c57600080fd5b600061119782610c86565b90506111ae8160075461159290919063ffffffff16565b6007819055506111be338361178b565b3373ffffffffffffffffffffffffffffffffffffffff166108fc829081150290604051600060405180830381858888f19350505050158015611204573d6000803e3d6000fd5b507fcec1bae6e024d929f2929f3478ce70f55f9c636c8ef7b5073a61d7c3a432451b8282604051808381526020018281526020019250505060405180910390a15050565b611250610ee4565b61125957600080fd5b611262816118df565b50565b600073ffffffffffffffffffffffffffffffffffffffff168273ffffffffffffffffffffffffffffffffffffffff16141561129f57600080fd5b600073ffffffffffffffffffffffffffffffffffffffff168373ffffffffffffffffffffffffffffffffffffffff1614156112d957600080fd5b80600460008573ffffffffffffffffffffffffffffffffffffffff1673ffffffffffffffffffffffffffffffffffffffff16815260200190815260200160002060008473ffffffffffffffffffffffffffffffffffffffff1673ffffffffffffffffffffffffffffffffffffffff168152602001908152602001600020819055508173ffffffffffffffffffffffffffffffffffffffff168373ffffffffffffffffffffffffffffffffffffffff167f8c5be1e5ebec7d5bd14f71427d1e84f3dd0314c0f7b2291e5b200ac8c7c3b925836040518082815260200191505060405180910390a3505050565b600073ffffffffffffffffffffffffffffffffffffffff168273ffffffffffffffffffffffffffffffffffffffff1614156113fe57600080fd5b61145081600360008673ffffffffffffffffffffffffffffffffffffffff1673ffffffffffffffffffffffffffffffffffffffff1681526020019081526020016000205461159290919063ffffffff16565b600360008573ffffffffffffffffffffffffffffffffffffffff1673ffffffffffffffffffffffffffffffffffffffff168152602001908152602001600020819055506114e581600360008573ffffffffffffffffffffffffffffffffffffffff1673ffffffffffffffffffffffffffffffffffffffff168152602001908152602001600020546115b290919063ffffffff16565b600360008473ffffffffffffffffffffffffffffffffffffffff1673ffffffffffffffffffffffffffffffffffffffff168152602001908152602001600020819055508173ffffffffffffffffffffffffffffffffffffffff168373ffffffffffffffffffffffffffffffffffffffff167fddf252ad1be2c89b69c2b068fc378daa952ba7f163c4a11628f55a4df523b3ef836040518082815260200191505060405180910390a3505050565b6000828211156115a157600080fd5b600082840390508091505092915050565b6000808284019050838110156115c757600080fd5b8091505092915050565b6000806001600860009054906101000a900460ff160160ff16905061162f6402540be40061162183860a611613856402540be4006119d990919063ffffffff16565b6119ff90919063ffffffff16565b6119d990919063ffffffff16565b915050919050565b600073ffffffffffffffffffffffffffffffffffffffff168273ffffffffffffffffffffffffffffffffffffffff16141561167157600080fd5b611686816005546115b290919063ffffffff16565b6005819055506116de81600360008573ffffffffffffffffffffffffffffffffffffffff1673ffffffffffffffffffffffffffffffffffffffff168152602001908152602001600020546115b290919063ffffffff16565b600360008473ffffffffffffffffffffffffffffffffffffffff1673ffffffffffffffffffffffffffffffffffffffff168152602001908152602001600020819055508173ffffffffffffffffffffffffffffffffffffffff16600073ffffffffffffffffffffffffffffffffffffffff167fddf252ad1be2c89b69c2b068fc378daa952ba7f163c4a11628f55a4df523b3ef836040518082815260200191505060405180910390a35050565b600073ffffffffffffffffffffffffffffffffffffffff168273ffffffffffffffffffffffffffffffffffffffff1614156117c557600080fd5b6117da8160055461159290919063ffffffff16565b60058190555061183281600360008573ffffffffffffffffffffffffffffffffffffffff1673ffffffffffffffffffffffffffffffffffffffff1681526020019081526020016000205461159290919063ffffffff16565b600360008473ffffffffffffffffffffffffffffffffffffffff1673ffffffffffffffffffffffffffffffffffffffff16815260200190815260200160002081905550600073ffffffffffffffffffffffffffffffffffffffff168273ffffffffffffffffffffffffffffffffffffffff167fddf252ad1be2c89b69c2b068fc378daa952ba7f163c4a11628f55a4df523b3ef836040518082815260200191505060405180910390a35050565b600073ffffffffffffffffffffffffffffffffffffffff168173ffffffffffffffffffffffffffffffffffffffff16141561191957600080fd5b8073ffffffffffffffffffffffffffffffffffffffff16600660009054906101000a900473ffffffffffffffffffffffffffffffffffffffff1673ffffffffffffffffffffffffffffffffffffffff167f8be0079c531659141344cd1fd0a4f28419497f9722a3daafe3b4186f6b6457e060405160405180910390a380600660006101000a81548173ffffffffffffffffffffffffffffffffffffffff021916908373ffffffffffffffffffffffffffffffffffffffff16021790555050565b60008082116119e757600080fd5b60008284816119f257fe5b0490508091505092915050565b600080831415611a125760009050611a33565b6000828402905082848281611a2357fe5b0414611a2e57600080fd5b809150505b9291505056fea165627a7a72305820c11a95e08593d1498fe2703d817cf7c8d59a2c54fda2dea5d829a8416e14db6a0029",
  "source": "\n// File: openzeppelin-solidity/contracts/token/ERC20/IERC20.sol\n\npragma solidity ^0.5.2;\n\n/**\n * @title ERC20 interface\n * @dev see https://eips.ethereum.org/EIPS/eip-20\n */\ninterface IERC20 {\n    function transfer(address to, uint256 value) external returns (bool);\n\n    function approve(address spender, uint256 value) external returns (bool);\n\n    function transferFrom(address from, address to, uint256 value) external returns (bool);\n\n    function totalSupply() external view returns (uint256);\n\n    function balanceOf(address who) external view returns (uint256);\n\n    function allowance(address owner, address spender) external view returns (uint256);\n\n    event Transfer(address indexed from, address indexed to, uint256 value);\n\n    event Approval(address indexed owner, address indexed spender, uint256 value);\n}\n\n// File: openzeppelin-solidity/contracts/token/ERC20/ERC20Detailed.sol\n\n\n\n/**\n * @title ERC20Detailed token\n * @dev The decimals are only for visualization purposes.\n * All the operations are done using the smallest and indivisible token unit,\n * just as on Ethereum all the operations are done in wei.\n */\ncontract ERC20Detailed is IERC20 {\n    string private _name;\n    string private _symbol;\n    uint8 private _decimals;\n\n    constructor (string memory name, string memory symbol, uint8 decimals) public {\n        _name = name;\n        _symbol = symbol;\n        _decimals = decimals;\n    }\n\n    /**\n     * @return the name of the token.\n     */\n    function name() public view returns (string memory) {\n        return _name;\n    }\n\n    /**\n     * @return the symbol of the token.\n     */\n    function symbol() public view returns (string memory) {\n        return _symbol;\n    }\n\n    /**\n     * @return the number of decimals of the token.\n     */\n    function decimals() public view returns (uint8) {\n        return _decimals;\n    }\n}\n\n// File: openzeppelin-solidity/contracts/math/SafeMath.sol\n\n/**\n * @title SafeMath\n * @dev Unsigned math operations with safety checks that revert on error\n */\nlibrary SafeMath {\n    /**\n     * @dev Multiplies two unsigned integers, reverts on overflow.\n     */\n    function mul(uint256 a, uint256 b) internal pure returns (uint256) {\n        // Gas optimization: this is cheaper than requiring 'a' not being zero, but the\n        // benefit is lost if 'b' is also tested.\n        // See: https://github.com/OpenZeppelin/openzeppelin-solidity/pull/522\n        if (a == 0) {\n            return 0;\n        }\n\n        uint256 c = a * b;\n        require(c / a == b);\n\n        return c;\n    }\n\n    /**\n     * @dev Integer division of two unsigned integers truncating the quotient, reverts on division by zero.\n     */\n    function div(uint256 a, uint256 b) internal pure returns (uint256) {\n        // Solidity only automatically asserts when dividing by 0\n        require(b > 0);\n        uint256 c = a / b;\n        // assert(a == b * c + a % b); // There is no case in which this doesn't hold\n\n        return c;\n    }\n\n    /**\n     * @dev Subtracts two unsigned integers, reverts on overflow (i.e. if subtrahend is greater than minuend).\n     */\n    function sub(uint256 a, uint256 b) internal pure returns (uint256) {\n        require(b <= a);\n        uint256 c = a - b;\n\n        return c;\n    }\n\n    /**\n     * @dev Adds two unsigned integers, reverts on overflow.\n     */\n    function add(uint256 a, uint256 b) internal pure returns (uint256) {\n        uint256 c = a + b;\n        require(c >= a);\n\n        return c;\n    }\n\n    /**\n     * @dev Divides two unsigned integers and returns the remainder (unsigned integer modulo),\n     * reverts when dividing by zero.\n     */\n    function mod(uint256 a, uint256 b) internal pure returns (uint256) {\n        require(b != 0);\n        return a % b;\n    }\n}\n\n// File: openzeppelin-solidity/contracts/token/ERC20/ERC20.sol\n\n\n/**\n * @title Standard ERC20 token\n *\n * @dev Implementation of the basic standard token.\n * https://eips.ethereum.org/EIPS/eip-20\n * Originally based on code by FirstBlood:\n * https://github.com/Firstbloodio/token/blob/master/smart_contract/FirstBloodToken.sol\n *\n * This implementation emits additional Approval events, allowing applications to reconstruct the allowance status for\n * all accounts just by listening to said events. Note that this isn't required by the specification, and other\n * compliant implementations may not do it.\n */\ncontract ERC20 is IERC20 {\n    using SafeMath for uint256;\n\n    mapping (address => uint256) private _balances;\n\n    mapping (address => mapping (address => uint256)) private _allowed;\n\n    uint256 private _totalSupply;\n\n    /**\n     * @dev Total number of tokens in existence\n     */\n    function totalSupply() public view returns (uint256) {\n        return _totalSupply;\n    }\n\n    /**\n     * @dev Gets the balance of the specified address.\n     * @param owner The address to query the balance of.\n     * @return A uint256 representing the amount owned by the passed address.\n     */\n    function balanceOf(address owner) public view returns (uint256) {\n        return _balances[owner];\n    }\n\n    /**\n     * @dev Function to check the amount of tokens that an owner allowed to a spender.\n     * @param owner address The address which owns the funds.\n     * @param spender address The address which will spend the funds.\n     * @return A uint256 specifying the amount of tokens still available for the spender.\n     */\n    function allowance(address owner, address spender) public view returns (uint256) {\n        return _allowed[owner][spender];\n    }\n\n    /**\n     * @dev Transfer token to a specified address\n     * @param to The address to transfer to.\n     * @param value The amount to be transferred.\n     */\n    function transfer(address to, uint256 value) public returns (bool) {\n        _transfer(msg.sender, to, value);\n        return true;\n    }\n\n    /**\n     * @dev Approve the passed address to spend the specified amount of tokens on behalf of msg.sender.\n     * Beware that changing an allowance with this method brings the risk that someone may use both the old\n     * and the new allowance by unfortunate transaction ordering. One possible solution to mitigate this\n     * race condition is to first reduce the spender's allowance to 0 and set the desired value afterwards:\n     * https://github.com/ethereum/EIPs/issues/20#issuecomment-263524729\n     * @param spender The address which will spend the funds.\n     * @param value The amount of tokens to be spent.\n     */\n    function approve(address spender, uint256 value) public returns (bool) {\n        _approve(msg.sender, spender, value);\n        return true;\n    }\n\n    /**\n     * @dev Transfer tokens from one address to another.\n     * Note that while this function emits an Approval event, this is not required as per the specification,\n     * and other compliant implementations may not emit the event.\n     * @param from address The address which you want to send tokens from\n     * @param to address The address which you want to transfer to\n     * @param value uint256 the amount of tokens to be transferred\n     */\n    function transferFrom(address from, address to, uint256 value) public returns (bool) {\n        _transfer(from, to, value);\n        _approve(from, msg.sender, _allowed[from][msg.sender].sub(value));\n        return true;\n    }\n\n    /**\n     * @dev Increase the amount of tokens that an owner allowed to a spender.\n     * approve should be called when _allowed[msg.sender][spender] == 0. To increment\n     * allowed value is better to use this function to avoid 2 calls (and wait until\n     * the first transaction is mined)\n     * From MonolithDAO Token.sol\n     * Emits an Approval event.\n     * @param spender The address which will spend the funds.\n     * @param addedValue The amount of tokens to increase the allowance by.\n     */\n    function increaseAllowance(address spender, uint256 addedValue) public returns (bool) {\n        _approve(msg.sender, spender, _allowed[msg.sender][spender].add(addedValue));\n        return true;\n    }\n\n    /**\n     * @dev Decrease the amount of tokens that an owner allowed to a spender.\n     * approve should be called when _allowed[msg.sender][spender] == 0. To decrement\n     * allowed value is better to use this function to avoid 2 calls (and wait until\n     * the first transaction is mined)\n     * From MonolithDAO Token.sol\n     * Emits an Approval event.\n     * @param spender The address which will spend the funds.\n     * @param subtractedValue The amount of tokens to decrease the allowance by.\n     */\n    function decreaseAllowance(address spender, uint256 subtractedValue) public returns (bool) {\n        _approve(msg.sender, spender, _allowed[msg.sender][spender].sub(subtractedValue));\n        return true;\n    }\n\n    /**\n     * @dev Transfer token for a specified addresses\n     * @param from The address to transfer from.\n     * @param to The address to transfer to.\n     * @param value The amount to be transferred.\n     */\n    function _transfer(address from, address to, uint256 value) internal {\n        require(to != address(0));\n\n        _balances[from] = _balances[from].sub(value);\n        _balances[to] = _balances[to].add(value);\n        emit Transfer(from, to, value);\n    }\n\n    /**\n     * @dev Internal function that mints an amount of the token and assigns it to\n     * an account. This encapsulates the modification of balances such that the\n     * proper events are emitted.\n     * @param account The account that will receive the created tokens.\n     * @param value The amount that will be created.\n     */\n    function _mint(address account, uint256 value) internal {\n        require(account != address(0));\n\n        _totalSupply = _totalSupply.add(value);\n        _balances[account] = _balances[account].add(value);\n        emit Transfer(address(0), account, value);\n    }\n\n    /**\n     * @dev Internal function that burns an amount of the token of a given\n     * account.\n     * @param account The account whose tokens will be burnt.\n     * @param value The amount that will be burnt.\n     */\n    function _burn(address account, uint256 value) internal {\n        require(account != address(0));\n\n        _totalSupply = _totalSupply.sub(value);\n        _balances[account] = _balances[account].sub(value);\n        emit Transfer(account, address(0), value);\n    }\n\n    /**\n     * @dev Approve an address to spend another addresses' tokens.\n     * @param owner The address that owns the tokens.\n     * @param spender The address that will spend the tokens.\n     * @param value The number of tokens that can be spent.\n     */\n    function _approve(address owner, address spender, uint256 value) internal {\n        require(spender != address(0));\n        require(owner != address(0));\n\n        _allowed[owner][spender] = value;\n        emit Approval(owner, spender, value);\n    }\n\n    /**\n     * @dev Internal function that burns an amount of the token of a given\n     * account, deducting from the sender's allowance for said account. Uses the\n     * internal burn function.\n     * Emits an Approval event (reflecting the reduced allowance).\n     * @param account The account whose tokens will be burnt.\n     * @param value The amount that will be burnt.\n     */\n    function _burnFrom(address account, uint256 value) internal {\n        _burn(account, value);\n        _approve(account, msg.sender, _allowed[account][msg.sender].sub(value));\n    }\n}\n\n// File: openzeppelin-solidity/contracts/ownership/Ownable.sol\n\n/**\n * @title Ownable\n * @dev The Ownable contract has an owner address, and provides basic authorization control\n * functions, this simplifies the implementation of \"user permissions\".\n */\ncontract Ownable {\n    address private _owner;\n\n    event OwnershipTransferred(address indexed previousOwner, address indexed newOwner);\n\n    /**\n     * @dev The Ownable constructor sets the original `owner` of the contract to the sender\n     * account.\n     */\n    constructor () internal {\n        _owner = msg.sender;\n        emit OwnershipTransferred(address(0), _owner);\n    }\n\n    /**\n     * @return the address of the owner.\n     */\n    function owner() public view returns (address) {\n        return _owner;\n    }\n\n    /**\n     * @dev Throws if called by any account other than the owner.\n     */\n    modifier onlyOwner() {\n        require(isOwner());\n        _;\n    }\n\n    /**\n     * @return true if `msg.sender` is the owner of the contract.\n     */\n    function isOwner() public view returns (bool) {\n        return msg.sender == _owner;\n    }\n\n    /**\n     * @dev Allows the current owner to relinquish control of the contract.\n     * It will not be possible to call the functions with the `onlyOwner`\n     * modifier anymore.\n     * @notice Renouncing ownership will leave the contract without an owner,\n     * thereby removing any functionality that is only available to the owner.\n     */\n    function renounceOwnership() public onlyOwner {\n        emit OwnershipTransferred(_owner, address(0));\n        _owner = address(0);\n    }\n\n    /**\n     * @dev Allows the current owner to transfer control of the contract to a newOwner.\n     * @param newOwner The address to transfer ownership to.\n     */\n    function transferOwnership(address newOwner) public onlyOwner {\n        _transferOwnership(newOwner);\n    }\n\n    /**\n     * @dev Transfers control of the contract to a newOwner.\n     * @param newOwner The address to transfer ownership to.\n     */\n    function _transferOwnership(address newOwner) internal {\n        require(newOwner != address(0));\n        emit OwnershipTransferred(_owner, newOwner);\n        _owner = newOwner;\n    }\n}\n\n// File: contracts/BondingCurvedToken.sol\n\n\n\n\n\n\n/**\n * @title Bonding Curve\n * @dev Bonding curve contract based on polynomial curve that is backed by ether\n * inspired by bancor protocol, oed, simondlr\n * https://github.com/bancorprotocol/contracts\n * https://github.com/oed/bonding-curves/blob/master/contracts/EthBondingCurvedToken.sol\n * https://github.com/ConsenSys/curationmarkets/blob/master/CurationMarkets.sol\n */\ncontract BondingCurvedToken is ERC20Detailed, ERC20, Ownable {\n\n  event Minted(uint256 amount, uint256 totalCost);\n  event Burned(uint256 amount, uint256 reward);\n\n  uint256 constant private PRECISION = 10000000000;\n\n  /**\n   * @dev Available balance of reserve token in contract.\n   */\n  uint256 public poolBalance;\n\n  /**\n   * @dev The exponent of the polynomial bonding curve.\n   */\n  uint8 public exponent;\n\n  /// @dev constructor    Initializes the bonding curve\n  /// @param _name         The name of the token\n  /// @param _decimals     The number of decimals to use\n  /// @param _symbol       The symbol of the token\n  /// @param _exponent        The exponent of the curve\n  constructor(\n    string memory _name,\n    string memory _symbol,\n    uint8 _decimals,\n    uint8 _exponent\n  ) ERC20Detailed(_name, _symbol, _decimals) public {\n    exponent = _exponent;\n  }\n\n  /// @dev        Calculate the integral from 0 to t\n  /// @param t    The number to integrate to\n  function curveIntegral(uint256 t) internal returns (uint256) {\n    uint256 nexp = exponent + 1;\n    // Calculate integral of t^exponent\n    return PRECISION.div(nexp).mul(t ** nexp).div(PRECISION);\n  }\n\n  function priceToMint(uint256 numTokens) public returns(uint256) {\n    uint256 totalSupply = totalSupply();\n    return curveIntegral(totalSupply.add(numTokens)).sub(poolBalance);\n  }\n\n  /**\n   * Calculates the amount of reserve tokens (ETH) one receives in exchange for\n   * a given number of\n   * continuous tokens\n   */\n  function calculateSaleReturn(uint256 numTokens) public returns(uint256) {\n    uint256 totalSupply = totalSupply();\n    return poolBalance.sub(curveIntegral(totalSupply.sub(numTokens)));\n  }\n\n  /**\n   * @dev Buy tokens by minting them\n   * @param numTokens The number of tokens you want to mint/buy\n   * TODO implement maxAmount that helps prevent miner front-running\n   */\n  function buy(uint256 numTokens, address account) public payable {\n    uint256 priceForTokens = priceToMint(numTokens);\n    require(msg.value >= priceForTokens);\n\n    poolBalance = poolBalance.add(msg.value);\n    _mint(account, numTokens);\n\n    // Send back refund.\n    if (msg.value > priceForTokens) {\n      msg.sender.transfer(msg.value - priceForTokens);\n    }\n\n    emit Minted(numTokens, priceForTokens);\n  }\n\n  /**\n   * @dev Sell tokens by burning them to receive ether\n   * @param sellAmount Amount of tokens you want to sell\n   */\n  function sell(uint256 sellAmount) public {\n    require(sellAmount > 0 && balanceOf(msg.sender) >= sellAmount);\n\n    /* The amount of ETH to return.\n\n    */\n    uint256 ethAmount = calculateSaleReturn(sellAmount);\n\n    poolBalance = poolBalance.sub(ethAmount);\n    _burn(msg.sender, sellAmount);\n\n    msg.sender.transfer(ethAmount);\n\n    emit Burned(sellAmount, ethAmount);\n  }\n}\n\n// File: contracts/CaptionCard.sol\n\npragma solidity ^0.5.0;\n\n\n/**\n * @title Caption Card\n * @dev A token that represents a caption card in the game, it is backed by\n * a bonding curve.\n * Loosely inspired by dirict0x\n * https://github.com/district0x/memefactory\n */\ncontract CaptionCard is BondingCurvedToken {\n\n  address public creator;\n  string public captionText;\n\n  /**\n   * Exponent of 1 for the bonding curve means that it uses a linear function.\n   * This puts price increase at the same magnitude of token supply increase:\n   * i.e. 10,000 token issuance would necessarily lead to a 10,000X gain in price\n   * Chose this because the project will likely not grow to a large scale and I\n   * want to increase quickly enough to make the game interesting:\n   * https://medium.com/thoughtchains/on-single-bonding-curves-for-continuous-token-models-a167f5ffef89\n  */\n  uint8 constant private exponent = 1;\n\n  /**\n   * @dev Constructor for this contract.\n   *\n   * @param _captionText The caption that is on the card.\n   * @param _creator The address of the account that created the card.\n   */\n  constructor(\n    string memory _captionText,\n    address _creator\n  ) BondingCurvedToken(_captionText, \"\", 18, exponent) public {\n    captionText = _captionText;\n    creator = _creator;\n  }\n}\n\n// File: contracts/CaptionCardFactory.sol\n\npragma solidity ^0.5.0;\n\n\n/**\n * @title Caption Card Factory\n * @dev A facotry contract that is used to create and deploy CaptionCard tokens\n * and is used for storing the child CaptionCard contract's addresses so that\n * they can be accessed whenever necessary.\n *\n * Loosely inspired by dirict0x\n * https://github.com/district0x/memefactory\n */\ncontract CaptionCardFactory {\n\n  event CaptionCardCreated(CaptionCard card);\n\n  /* A mapping of all the hashed byte32 captionTexts to if they already exist. */\n  mapping (bytes32 => bool) public existingCards;\n\n  /* Keeps track of all caption cards that have been created so far. */\n  address[] public captionCards;\n\n  /* A helper function to get a unique key for each cpationText. */\n  function getCaptionTextUID(string memory _captionText)\n    private returns (bytes32 _captionHash) {\n      return keccak256(bytes(_captionText));\n  }\n\n  modifier cardDoesNotExist(string memory _captionText) {\n    require(!existingCards[getCaptionTextUID(_captionText)]);\n    _;\n  }\n\n  function addCaptionCard(string memory _captionText)\n    public\n    cardDoesNotExist(_captionText) {\n     CaptionCard captionCard = new CaptionCard(\n       _captionText,\n       msg.sender\n     );\n\n     captionCards.push(address(captionCard));\n\n     existingCards[getCaptionTextUID(_captionText)] = true;\n     emit CaptionCardCreated(captionCard);\n  }\n}\n",
  "sourcePath": "/Users/apaul/Desktop/cs1951l/WhatDoYouMeme/contracts/WhatDoYouMeme.sol",
  "compiler": {
    "name": "solc",
    "version": "0.5.7+commit.6da8b019.Emscripten.clang"
  },
  "schemaVersion": "3.0.6",
  "updatedAt": "2019-04-23T17:35:56.393Z",
  "devdoc": {
    "details": "A token that represents a caption card in the game, it is backed by a bonding curve. Loosely inspired by dirict0x https://github.com/district0x/memefactory",
    "methods": {
      "allowance(address,address)": {
        "details": "Function to check the amount of tokens that an owner allowed to a spender.",
        "params": {
          "owner": "address The address which owns the funds.",
          "spender": "address The address which will spend the funds."
        },
        "return": "A uint256 specifying the amount of tokens still available for the spender."
      },
      "approve(address,uint256)": {
        "details": "Approve the passed address to spend the specified amount of tokens on behalf of msg.sender. Beware that changing an allowance with this method brings the risk that someone may use both the old and the new allowance by unfortunate transaction ordering. One possible solution to mitigate this race condition is to first reduce the spender's allowance to 0 and set the desired value afterwards: https://github.com/ethereum/EIPs/issues/20#issuecomment-263524729",
        "params": {
          "spender": "The address which will spend the funds.",
          "value": "The amount of tokens to be spent."
        }
      },
      "balanceOf(address)": {
        "details": "Gets the balance of the specified address.",
        "params": {
          "owner": "The address to query the balance of."
        },
        "return": "A uint256 representing the amount owned by the passed address."
      },
      "buy(uint256,address)": {
        "details": "Buy tokens by minting them",
        "params": {
          "numTokens": "The number of tokens you want to mint/buy TODO implement maxAmount that helps prevent miner front-running"
        }
      },
      "constructor": {
        "details": "Constructor for this contract.",
        "params": {
          "_captionText": "The caption that is on the card.",
          "_creator": "The address of the account that created the card."
        }
      },
      "decimals()": {
        "return": "the number of decimals of the token."
      },
      "decreaseAllowance(address,uint256)": {
        "details": "Decrease the amount of tokens that an owner allowed to a spender. approve should be called when _allowed[msg.sender][spender] == 0. To decrement allowed value is better to use this function to avoid 2 calls (and wait until the first transaction is mined) From MonolithDAO Token.sol Emits an Approval event.",
        "params": {
          "spender": "The address which will spend the funds.",
          "subtractedValue": "The amount of tokens to decrease the allowance by."
        }
      },
      "increaseAllowance(address,uint256)": {
        "details": "Increase the amount of tokens that an owner allowed to a spender. approve should be called when _allowed[msg.sender][spender] == 0. To increment allowed value is better to use this function to avoid 2 calls (and wait until the first transaction is mined) From MonolithDAO Token.sol Emits an Approval event.",
        "params": {
          "addedValue": "The amount of tokens to increase the allowance by.",
          "spender": "The address which will spend the funds."
        }
      },
      "isOwner()": {
        "return": "true if `msg.sender` is the owner of the contract."
      },
      "name()": {
        "return": "the name of the token."
      },
      "owner()": {
        "return": "the address of the owner."
      },
      "renounceOwnership()": {
        "details": "Allows the current owner to relinquish control of the contract. It will not be possible to call the functions with the `onlyOwner` modifier anymore."
      },
      "sell(uint256)": {
        "details": "Sell tokens by burning them to receive ether",
        "params": {
          "sellAmount": "Amount of tokens you want to sell"
        }
      },
      "symbol()": {
        "return": "the symbol of the token."
      },
      "totalSupply()": {
        "details": "Total number of tokens in existence"
      },
      "transfer(address,uint256)": {
        "details": "Transfer token to a specified address",
        "params": {
          "to": "The address to transfer to.",
          "value": "The amount to be transferred."
        }
      },
      "transferFrom(address,address,uint256)": {
        "details": "Transfer tokens from one address to another. Note that while this function emits an Approval event, this is not required as per the specification, and other compliant implementations may not emit the event.",
        "params": {
          "from": "address The address which you want to send tokens from",
          "to": "address The address which you want to transfer to",
          "value": "uint256 the amount of tokens to be transferred"
        }
      },
      "transferOwnership(address)": {
        "details": "Allows the current owner to transfer control of the contract to a newOwner.",
        "params": {
          "newOwner": "The address to transfer ownership to."
        }
      }
    },
    "title": "Caption Card"
  },
  "userdoc": {
    "methods": {
      "calculateSaleReturn(uint256)": {
        "notice": "Calculates the amount of reserve tokens (ETH) one receives in exchange for a given number of continuous tokens"
      },
      "renounceOwnership()": {
        "notice": "Renouncing ownership will leave the contract without an owner, thereby removing any functionality that is only available to the owner."
      }
    }
  }
}